:020000041000EA
:1000000000200008EB0000100D0000004D01001062
:1000100000000000000000000000000000000000E0
:100020000000000000000000000000004901001076
:10003000000000000000000049010010490100100C
:100040004901001049010010490100104901001048
:100050004901001049010010490100104901001038
:100060004901001049010010490100104901001028
:100070004901001049010010490100104901001018
:1000800010B5064C2378002B07D1054B002B02D06E
:10009000044800E000BF0123237010BD18050008CC
:1000A00000000000300F0010044B10B5002B03D0EF
:1000B0000349044800E000BF10BDC0460000000036
:1000C0001C050008300F00100230800803D00130FA
:1000D0000238FCD1C046C0467047EFF3108072B6BC
:1000E000704780F3108870477047FFF7FDFF72B6C6
:1000F0000F4C104DAC4209DA21686268A368043BDA
:1001000002DBC858D050FAE70C34F3E70A490B4A2F
:100110000020521A02DD043A8850FCDC08480949E4
:100120000860BFF34F8F00F04FFD00F077FCFEE753
:10013000340F00104C0F00101805000820070008AD
:100140000000000808ED00E0FEE7FEE700B504202F
:100150007146084202D0EFF3098001E0EFF3088016
:10016000043000F0E1FAFEE7014B18607047C0462A
:100170001C070008044B1B681A00AC3212881B6A6B
:100180005043C0187047C0461C0700081D4B9842DA
:100190000FD010D840282FD005D8002830D01028F4
:1001A00028D019481EE0802828D080235B00984280
:1001B000F7D1144816E0154B984214D008D8A02364
:1001C0001B0698421CD0124B9842EAD1A0200BE0AB
:1001D000104B98420AD0104B984209D00F4B9842CE
:1001E000DFD10F487047A420C003FBE70D48F9E7B3
:1001F0000D48F7E70D48F5E70D48F3E70D48F1E73F
:100200000020EFE706005200FF005200010000F05E
:10021000090000A0040000F0050000F0030000F059
:100220000100520002005200030052000100500081
:10023000020050000500520010B50020FFF79AFFA1
:100240000A4B1C682300B0331B68C0180368002BDE
:100250000ADB074B1868FFF799FF012263689A6071
:100260009A68002AFCD110BD0248FCE71C07000870
:100270003405000802005000064B1B68B0331B68B1
:10028000C3181B68002B03DA89B241600020704755
:100290000148FCE71C07000801008A000368002BE6
:1002A00004DA89B2C2608160002070470048FCE730
:1002B00001008A00064B1B68B0331B68C3181B681B
:1002C000002B03DAC36800200B6070470148FCE78D
:1002D0001C07000801008A00024B1A68002A00D19E
:1002E0001860704748050008F0B52C246043124C94
:1002F0001F0024681E0A2018FF24274034400F4E98
:100300001B0C356807602E6A44608360AC352D880D
:1003100080346F4364013419BF191E0433430761ED
:100320004461A36000238361059BC2610162002BCD
:1003300001D01B888381F0BD480500081C07000818
:10034000F0B5836885B002AD2B80154B02681B6841
:10035000066A9B8E476A9B186B8043680095826A89
:10036000C16A040003930369C068FFF7BDFF002161
:100370003B000A0000913000FFF7B6FF216B280018
:1003800000F086F90022AB5E002B06DB1F22134033
:100390001E3A9A401300034A136005B0F0BDC046F0
:1003A0001C07000800E100E0F7B52C25134C68435A
:1003B000266869433418256901937118002D19D0F6
:1003C0008869002818D12E68002E15DA6768012484
:1003D00026004B689E40B44613689EB263461B04D9
:1003E0001E431660EA608C61BC40019BA4B24B6264
:1003F000AC60FEBD0248FCE70248FAE74805000889
:1004000004028A0007028A0073B5002642690400CC
:10041000D56801962B0CB34221D01B0413601368DE
:10042000194B00691B68B0331B68C3181B68B342C3
:1004300015DA01A9FFF73EFFB0420CD10198E2693D
:1004400003681E0CDBB29A4205D9226A9B009B58B6
:10045000002B00D0984731002069FFF70DFFADB2A7
:10046000002D09D063691D6000251B68636AAB42DB
:1004700005D098476562A56163691B6873BDA36A6F
:10048000002BF8D09847F6E71C0700082C2310B57E
:100490004343034A1068C018FFF7B6FF10BDC046BB
:1004A00048050008F8B5194B0F001B681A002E32DA
:1004B0001278824227D9002925D01F250A681540C5
:1004C00021D11900AC310C88114E60431C6AD2084E
:1004D000041929007868346000F09AFC2900200093
:1004E000FFF7CAFE3A0029003068FFF7D7FE041E66
:1004F00007D101003068FFF7BFFE03002000002B8A
:1005000000D00448F8BD0448FCE7C0461C070008BA
:100510004C05000801018A0003018A0010B5002A79
:100520000DD1002914D10B4B1A681300AC331B8872
:100530005843136AC018084B1860080010BD002902
:1005400006D0064B196019005A60FFF7ABFFF5E7BC
:100550000348F3E71C0700084C050008E004000806
:1005600003018A00F7B5184F04003B680191DE686B
:100570003368834226D90025A94202D1FFF7ADFD99
:10058000050038680368002B1ADA1F220123224075
:10059000934064097268A4001419226813420DD0B4
:1005A0009A43226000240021FFF766FE019B002B86
:1005B00002D12800FFF795FD2000FEBD034CF2E7B5
:1005C000034CF3E7034CF7E74C05000802018800F1
:1005D0000301880004018A000A4B1B68DB681A6863
:1005E00082420DD959681F23420918401E3B83409F
:1005F000920050581840431E9841034BC018704752
:100600000248FCE74C0500080001880004018A004C
:10061000144B30B51A680724130028331B781F2B9E
:1006200015D883081D00A5432C1E0FD1033420408C
:10063000A040814012689B002032D3180A00FF219D
:1006400081401C68624011406140196030BD8023C8
:1006500020401B06184380239B011268C91889009B
:100660008850F3E71C070008064B9A680300064809
:1006700010339B00824202D1985899507047034A28
:10068000D058FBE700ED00E000000008000000107B
:10069000F8B506000D0000283AD00023C05E0028FF
:1006A00028DB7188FFF7B4FF0024FF22032794465C
:1006B0000023F05E716883B21F40FF006646BA40B7
:1006C00089013140D243B940002815DB114E83081F
:1006D0009B009B19C026B6009F593A40114399517F
:1006E0000D4B9A680D4B9A4202D12900FFF7BCFFCF
:1006F0002000F8BD0A4CD8E70F263340083B064ED1
:100700009B089B009B19DE6932401143D961E7E7E2
:10071000034CEDE700E100E000ED00E00000000820
:1007200001005600FEE7000002680A4B10B51A608F
:1007300042685A6082689A60C268DA6002691A6127
:1007400042695A6182699A61C269DA61FFF7EAFF18
:1007500010BDC046F8040008B0235B055A7821207C
:10076000002A01D05878C0B27047B0235B059A893F
:10077000002A02D0988980B2704780204000FBE7B1
:100780007FB5274B86000D00F458042901D00129BC
:1007900027D100200FE0A3682B420BD1E36829008A
:1007A0001A685B6802920193039302A82368984732
:1007B0001C4B1C606469002C0BD01B4B9842EAD187
:1007C000012DE8D1174B18481A68184B9A5104B0FC
:1007D00070BD012DFBD1144B9842F3D0134B9C51AB
:1007E000F5E7022906D10F4B1B68181EEFD01C69D4
:1007F00003E01C006369002BFBD10020002CE6D035
:10080000A3682B4209D1E36829001A685B68029249
:100810000193039302A8236898472469EEE7C04632
:100820008805000884050008FF00420070050008E4
:10083000F2220E4BD2011B68DB689A580260F0224C
:10084000D2019A5842600A4A9A588260094A9A58D4
:10085000C260094A9A580261084A9A584261084A95
:100860009A588261074A9B58C36170471C07000869
:1008700004780000087800000C7800001078000070
:100880001478000018780000F0220E4B41681B68B5
:10089000D201DB68995081680B4A9950C1680B4AB4
:1008A000995001690A4A995041690A4A99508169E7
:1008B000094A9950C169094A99500168E83299502A
:1008C0007047C0461C070008047800000878000044
:1008D0000C780000107800001478000018780000F0
:1008E000F7B53F4D07006B68002B4AD1FFF7F5FBCA
:1008F0006B680190002B56D13A4E33681A00413292
:100900001278002A07D09B68E0331B68DB0602D50B
:100910003548FFF78DFFFFF728FF80235B009842E3
:1009200046D1380000F088FA002433681A004132BA
:100930001278002A17D0002815D09B68E0331B6876
:10094000DB0610D5FFF708FF274B212808D03268B7
:100950001300AC33198807234B43126A9B18DB68DA
:100960001800FFF791FF0198FFF7BBFB002C0ED199
:100970006B68002B03D008210120FFF701FF200046
:10098000FEBD01210800FFF7FBFE041EAED06B6820
:10099000002B03D002210120FFF7F2FE134B9C42F3
:1009A000EDD0134CEBE704210120FFF7E9FEA3E7AC
:1009B00032681300B0331B68126A9B181B68002B47
:1009C0000BDB04230B4A11690B431361012F02D087
:1009D00030BF0020A8E720BFFBE70020034CA4E7BE
:1009E000880500081C0700085005000805004200A3
:1009F000FF00420000ED00E0C022802006495200C6
:100A00008B58C0059B009B0803438B50802388585C
:100A10001B0603438B5070470000264010B562B69A
:100A2000034800F043F90020FFF75AFFFBE7C046F8
:100A30000020001010B50020FFF728FD10BD704702
:100A4000F8B5E0234E4C9B00E2580F23D02107203D
:100A50001A4093001B1989005958014065D0042998
:100A600059D04848002A65D1B223B1220321DB00C6
:100A7000D200E558A358A6581B0F360F0B400E4264
:100A800004D0A258120F0A40012A01D1EA0701D46A
:100A9000032B11D1B0233C4ADB00E658A158E5589E
:100AA000C904C90C00F028F9B3039B0B5843E901B2
:100AB000C90F013100F020F9E0239B00E358334ACD
:100AC0009B069B0FD840324B1860324BD458D158FC
:100AD000240A090E013100F00FF92F4BE1B2186022
:100AE000013100F009F92D4B040018602C4B2D4901
:100AF00018602D4BC01800F0FFF8FA212B4B89002D
:100B000018702B4BE01800F0F7F82A4B18602A4BAE
:100B1000C0031860F8BDC0211F208900595801404A
:100B2000112904D1802000029CE724489AE7FA208A
:100B3000C00197E7013A012ABED80327204A9E58F0
:100B4000204A99589D582D0F3D4204D09D582D0F95
:100B50003D40012D01D1F50703D48900890F0329F8
:100B6000AAD19E5899589D587F2333401F26090AC1
:100B70003140584300F0C0F8290C31409AE7C04694
:100B80000000264000366E01840500000000204071
:100B90008400000808100000880000088000000899
:100BA0009000000840420F003F420F0098000008EC
:100BB000E7030000940000088C00000800127A008F
:100BC0003C060000FC05000010B51D48FFF7CCFAFC
:100BD000B022E02130201B4CD200A35889005B00DA
:100BE0005B08A35063588343635080235B04A35086
:100BF000154B164AE250A02204339201E250FF2224
:100C0000134BE250FFF7F8FEC02201215200A35817
:100C10008B43A350FFF713FFFFF712FF0D4A80210C
:100C20000320FFF77BFC0C48FFF756FB0B4B1B68C0
:100C30004D331B78002B02D00948FFF781FB10BD14
:100C4000480E00100000264084050000010002004C
:100C50008C050000E80400089C0500081C0700083B
:100C6000FC0E00109023034A5B01D0580323184068
:100C70007047C0460000204010B59024FFF72DFAC1
:100C8000074B64011A5907491140074A0A431A5190
:100C9000102259681142FCD0FFF723FA10BDC0465C
:100CA00000002040FCFF00000100FA05F8B5902587
:100CB0000E4C6D010700FFF710FA63590600DB4385
:100CC0009B0701D1FFF7D8FF80239B00E7506359B2
:100CD000074A1A40074B13436351102362681A42B4
:100CE000FCD03000FFF7FDF9F8BDC0460000204001
:100CF000FCFF00000300FA05002243088B4274D376
:100D000003098B425FD3030A8B4244D3030B8B420C
:100D100028D3030C8B420DD3FF22090212BA030C15
:100D20008B4202D31212090265D0030B8B4219D3F6
:100D300000E0090AC30B8B4201D3CB03C01A524116
:100D4000830B8B4201D38B03C01A5241430B8B425E
:100D500001D34B03C01A5241030B8B4201D30B0347
:100D6000C01A5241C30A8B4201D3CB02C01A52416E
:100D7000830A8B4201D38B02C01A5241430A8B4231
:100D800001D34B02C01A5241030A8B4201D30B021A
:100D9000C01A5241CDD2C3098B4201D3CB01C01A34
:100DA000524183098B4201D38B01C01A524143093E
:100DB0008B4201D34B01C01A524103098B4201D32C
:100DC0000B01C01A5241C3088B4201D3CB00C01A99
:100DD000524183088B4201D38B00C01A5241430811
:100DE0008B4201D34B00C01A5241411A00D2014636
:100DF000524110467047FFE701B5002000F006F8A9
:100E000002BDC0460029F7D076E770477047C0465C
:100E100003001218934200D1704719700133F9E7AB
:100E2000F8B5C046F8BC08BC9E467047F8B5C04649
:100E3000F8BC08BC9E46704701B40248844601BC19
:100E4000604700BF65020008000020400000244009
:100E5000000000400000000000002340000030407F
:100E60000000314000009F40000022400000104080
:100E700020202020201010101D1D8000170075005C
:100E8000FF03060206360410200000007FC00000A9
:100E900000040000000000000019324B647D008057
:100EA0004000080B100000000000FF012002001F9E
:100EB00000800004FF081018001000140018001C27
:100EC0004044484C5000000008100000080000009A
:100ED00004000000041000000012000004210000C3
:100EE000002100000016000040114002C41300134E
:100EF0008013A013200000001C000000030000006D
:100F00000100000001000000000000000503600077
:100F100004000000010000000000000001000000CB
:100F20000604600008000000FC060008350A0010F6
:100F30000000000000000010000000088000000019
:100F4000540F00108000000860040000180500081D
:100F50000802000000093D0000127A0000093D006F
:100F60000000D00700093D00A00F000004000000B1
:100F7000A90000108100001080B230B5C00020D060
:100F8000104B07221C682300AC331B885A43236A8A
:100F9000D31819680029FCDA3E210B4B062519608D
:100FA0000A4B0B491960A3210A4BC9005D500A493D
:100FB00058505858206A1218002050605A58002A79
:100FC000FCDA30BD1C070008040126400801264059
:100FD0001E1F0000000026401C05000010B54378CD
:100FE000FF2B11D100F0BEF90400032000F09AF9A4
:100FF000C3685A68012311681943116011681942C6
:10100000FCD1200000F0BEF910BDF7B50090002023
:10101000019100F087F93F4D06002B681A004C3310
:10102000B03214681B780419002B5AD000F0A2F9D2
:10103000070003281BD000F095F9374A374B05000D
:10104000D358002B3EDA364A0121300000F0A2F9D5
:10105000002837D10198FFF78FFF009B002B3ED06F
:101060002368002BFCDB00F065F904002BE0062070
:1010700000F058F92B68B0331B68C0180368002BC8
:1010800002DA284C2000FEBD002000F063F9264B58
:101090009842F6D00023254A19001268012000F07A
:1010A00039F90025A842ECD1002000F053F91E4A7E
:1010B0001F4B904203D09D42E3D00135F4E79D429F
:1010C000B9D1DEE7174C032F05D10121002000F034
:1010D00039F90028F9D1280000F054F9D2E7154C6D
:1010E000F1E700F03FF90E4A05000121300000F061
:1010F00051F9002809D1009B002B08D02368002B50
:10110000FCDB00F017F90400E5E7064CE3E7094CC7
:10111000E1E7C0461C070008000026401C0500004F
:10112000340500080500520001018800440500084C
:10113000F049020001005000F0B56B4D07242B6808
:1011400085B01A000390AC32128854431A6A5B6867
:10115000A21801920293019B1B68002BFBDA00F09E
:1011600021F92A681300AC33198807234B4321283F
:1011700000D08CE0116A5B180221D8680143D96065
:10118000D968C9072BD515001600D96801CD0836D6
:10119000F46F8C46E96F41180019FF240F6824048E
:1011A0003F02274064460068A4B2000A00062743B5
:1011B00007439020DF600B684C4F00013B40034326
:1011C0000B601368F16F5B1819680F4038431860A3
:1011D0001368EA6F9A181268F26F9B181B68424DE9
:1011E0002A681300AC33198807234B43126A9B18F3
:1011F00000225A6004233E4A11690B431361039B8A
:10120000012B49D030BF019B1B68002BFBDA00F09B
:10121000C9F8212842D1296807220B000124AC33E8
:101220001B8800205A430B6AD318DD6825421BD067
:10123000081D0D68C06F2D4E28180568DB68354005
:101240001B0C1B061B0C2B4303600B000833D86FD1
:101250000B6818180B6A0568D318DB682E401B0E44
:101260001B023343036020000B6A0221D218D368AB
:101270008B43D3601C4B1A681300AC3319880723C7
:101280004B43126A9B1800225A6005B0F0BD126AE7
:101290009B18184ADA60A2E720BFB4E70020029B3F
:1012A000FC331B698342E5D1A320134B1349144A35
:1012B000144FC0000E681D5814680F6006271F5099
:1012C0003E20106010483E371F501F58002FFCDA98
:1012D00002980E4FFC3007610E60A321C9005D50DB
:1012E00001201460C6E7C0461C070008FF00FFFF8E
:1012F00000ED00E0500500080000264008012640EF
:10130000040126401E1F00001C050000AAAAAAAA6C
:101310000000000001B40248844601BC604700BFE1
:10132000A903001001B40248844601BC604700BF15
:101330007501001001B40248844601BC604700BF3B
:101340003902001001B40248844601BC604700BF66
:101350006505001001B40248844601BC604700BF27
:10136000D905001001B40248844601BC604700BFA3
:10137000DB00001001B40248844601BC604700BF96
:10138000650C001001B40248844601BC604700BFF0
:10139000E300001001B40248844601BC604700BF6E
:1013A0009D02001001B40248844601BC604700BFA2
:1013B00059070010000000000000000000000000BD
:0C13C00000000000000000000000000021
:1020000000F80F08252300100D0000009923001090
:10201000992300109923001099230010000000005C
:1020200000000000000000000000000095230010E8
:102030009523001000000000952300109523001048
:102040009523001095230010952300109523001070
:102050009523001095230010952300109523001060
:102060009523001095230010952300109523001050
:102070009523001095230010952300109523001040
:1022E00010B5054C237833B9044B13B10448AFF350
:1022F00000800123237010BDDC2A000800000000CC
:10230000B0B7001008B5034B1BB103490348AFF346
:10231000008008BD00000000E02A0008B0B70010EF
:1023200070477047FFF7FCFF72B6144C144DAC4277
:1023300009DA21686268A368043BA2BFC858D0507C
:10234000FAE70C34F3E70F490F4A00209142BCBF73
:1023500041F8040BFAE70D480D490860BFF34F8FB1
:1023600000F0A4FD00F080FDFFF7DBFF05F030FD7D
:1023700004F0BAFE05F018FDFEE70000BCB700103F
:10238000D4B70010DC2A00083C3200080020000806
:1023900008ED00E0FEE7FEE700B5042071460842C4
:1023A00002D0EFF3098001E0EFF30880043004F07D
:1023B00081FAFEE7000000000230800803D00130FF
:1023C0000238FCD100BF00BF7047EFF3108072B637
:1023D000704780F31088704708B500F0EDF900F001
:1023E00007F800F0D3F900F05DF800F083F808BDBD
:1023F00038B5294D2B689A684FF08041C2F8001417
:102400009968B3F870208B5843F47F438B502A6847
:1024100092F86F30032404FA03F392F86C1092F8E8
:102420006E0081400B43916843F00043C1F80034D3
:102430009368D3F80034194800F0F4FE296891F845
:102440006C3003F001038A6843F08043C2F8003423
:102450008A68B1F870301A44536823F47F4343F418
:10246000007353602B6893F86F20944093F86C20AE
:1024700093F86E1002FA01F10C4302F00102996820
:10248000144344F00044C1F800449B68D3F800347E
:10249000034800F0C7FE38BD0C31000860A70010EB
:1024A00064A7001008B50F4B1B6893F83D202F2A36
:1024B00003D99A680021C2F8BC1C93F83D20342A45
:1024C00006D993F86C2002F001029B68C3F8D02C67
:1024D000054800F0A7FE054800F0A4FE044800F0FF
:1024E000A1FE08BD0C31000814A8001018A80010A7
:1024F00098A7001010B56D4C6D4A0021204601F0E0
:1025000021FE6C4800F08EFE6B4A0121204601F04E
:1025100019FE6A4800F086FE694A0421204601F04F
:1025200011FE684800F07EFE04F5A064664A0021B2
:10253000204601F007FE654800F074FE644A02215F
:10254000204601F0FFFD634800F06CFE624A032163
:10255000204601F0F7FD614800F064FE604A062164
:10256000204601F0EFFD5F4800F05CFE04F580744A
:102570005D4A0021204601F0E5FD5C4800F052FE76
:102580005B4A0121204601F0DDFD5A4800F04AFE79
:10259000594A0221204601F0D5FD584800F042FE7C
:1025A000574A0321204601F0CDFD564800F03AFE7F
:1025B000554A0421204601F0C5FD544800F032FE82
:1025C000534A0521204601F0BDFD524800F02AFE85
:1025D000514A0621204601F0B5FD504800F022FE88
:1025E0004F4A0721204601F0ADFD4E4800F01AFE8B
:1025F00080344D4A0021204601F0A4FD4B4800F0F4
:1026000011FE4B4A0121204601F09CFD494800F093
:1026100009FE494A0221204601F094FD474800F096
:1026200001FE474A0321204601F08CFD454800F099
:10263000F9FD454800F0F6FDA4F56074434A042115
:10264000204601F07FFD424800F0ECFD414A0621A2
:10265000204601F077FD404800F0E4FD3F4A0721A5
:10266000204601F06FFD3E4800F0DCFD3D4800F0E3
:10267000D9FD3D4800F0D6FD3C4800F0D3FD3C4874
:1026800000F0D0FD3B4800F0CDFD3B4800F0CAFD16
:102690003A4800F0C7FD3A4800F0C4FD394800F060
:1026A000C1FD394800F0BEFD10BD00BF0000314043
:1026B00028A900105CA9001060A9001094A90010BE
:1026C0001CA8001050A8001098A90010CCA9001058
:1026D000D0A9001004AA001008AA00103CAA0010FB
:1026E00040AA001074AA001078AA0010ACAA00102A
:1026F000B0AA0010E4AA0010E8AA00101CAB001059
:1027000020AB001054AB001058AB00108CAB001085
:1027100090AB0010C4AB0010C8AB0010FCAB0010B5
:1027200000AC001034AC001038AC00106CAC0010E1
:1027300070AC0010A4AC0010A8AC0010DCAC001011
:10274000E0AC001014AD00107CA80010F0A8001040
:1027500024A90010B8A80010ECA8001080A8001050
:10276000B4A8001054A8001058A800105CA80010CD
:1027700060A8001064A8001068A800106CA80010E1
:1027800070A8001074A8001078A80010084B33221D
:1027900042F208015A5042F210015A5003F5DA038E
:1027A0000422C3F800231A6842F000421A607047FE
:1027B00000003040FEE7000070B582B09621002096
:1027C00004F0CAF804F068F800283BD0012004F0B7
:1027D000B7FB012004F08EFA714A536C23F47F4357
:1027E00043F468535364536CC3F307233A2B46D026
:1027F0006C4B1B6893F83C2032B16B49D1F88023B5
:1028000022F03002C1F880231968D3F884208B5855
:1028100023F47F438B50634A13681868D3F8801001
:10282000435823F07F4343F0807343501368186884
:10283000D3F88010435823F47F434350136893F830
:102840003B5026E004F018F8574BD3F8803113F0D2
:10285000010F06D1544AD2F80C3523F00043C2F8D8
:102860000C35514BD3F80C2542F00042C3F80C252F
:10287000D3F80C2542F00102C3F80C25A6E7536CEF
:1028800023F0005323F4685343F468535364AFE7D1
:10289000013DDDB16C1E434B1B6893F83B309C42FD
:1028A000F6D2414E05F27F1456F8243023F04053FF
:1028B00043F0005346F82430012003F0C3FF56F8DC
:1028C000243023F0004346F82430E1E700210120C2
:1028D00003F0AEFA334B1B6893F83C30002B41D029
:1028E000314BD3F8803313F00F0F41D02E4BD3F878
:1028F000882522F0405242F00052C3F88825D3F8D0
:10290000802522F00042C3F88025D3F88C2522F0E0
:102910000042C3F88C250021084603F089FA214BB8
:102920001B6893F83C3033B11F4AD2F8803323F050
:102930000F03C2F880331D4D002400942346224625
:102940002146284601F0AEFD00942346224601218F
:10295000284601F0A7FD124A136843F008031360EC
:10296000134C2DE040F2AC71124803F077FFB7E74B
:10297000002003F08BFA40F211139842B6D1094BB4
:102980001B6893F83C30002BB0D0074AD2F8803354
:1029900023F00F0343F00103C2F88033A6E700BF22
:1029A000000027400C3100080000264000003140A4
:1029B00040420F0018AD0010012003F043FF013C1E
:1029C0009D4B1B6913F0040F01D1002CF4D1002C96
:1029D00000F01B810023002B40F01981974AD2F8A8
:1029E000003523F0030343F00103C2F80035944C93
:1029F00023681968D3F884208B5823F47F438B50C5
:102A000023681968D3F880208B5823F07F4343F064
:102A100080738B5023681968D3F880208B5823F477
:102A20007F438B500021012003F002FA236893F8C2
:102A30003C3043B1814AD2F8803323F00F0343F096
:102A40000103C2F880330021084603F0F1F90021A8
:102A5000022003F0EDF90021032003F0E9F9002141
:102A6000042003F0E5F90021052003F0E1F97548A1
:102A700003F032FA002840F0CE80734803F014FBD4
:102A8000002840F0CC806E4B1B6893F83C2032B19C
:102A90006A49D1F8802322F00F02C1F8802393F80D
:102AA0003C3033B1654AD2F8803323F03003C2F8AA
:102AB00080330021012003F0BBF96449022003F0B8
:102AC00055FB002840F0AF8042F21071022003F065
:102AD000E1FB002840F0AB80594B1B6893F83C2089
:102AE000022A06D95549D1F8882322F00F02C1F8ED
:102AF000882393F83C20022A08D95049D1F888232A
:102B000022F0300242F01002C1F8882393F83C30E2
:102B1000022B06D9494AD2F8883343F00043C2F861
:102B20008833474B1B6893F83C20032A08D9434954
:102B3000D1F88C2322F00F0242F00202C1F88C235C
:102B400093F83C20032A06D93C49D1F88C2322F083
:102B50003002C1F88C2393F83C30032B06D9374A56
:102B6000D2F88C3343F00043C2F88C33344B1B68EB
:102B700093F83C20042A06D93049D1F8902322F05A
:102B80000F02C1F8902393F83C20042A06D92B4960
:102B9000D1F8902322F03002C1F8902393F83C3012
:102BA000042B06D9254AD2F8903343F00043C2F8EB
:102BB0009033214A136823F4407313601F4BD3F8FA
:102BC0000C2542F00042C3F80C25D3F80C2542F046
:102BD0000102C3F80C256421002003F0BDFE00F0C3
:102BE00067F81B4800F01EFB1A4800F01BFB1A4850
:102BF00000F018FB194800F015FB194800F012FB13
:102C0000184800F00FFB02B070BD174BE3E605203B
:102C1000FFF7D0FDE2E60420FFF7CCFD2DE704200E
:102C2000FFF7C8FD2FE70320FFF7C4FD4CE70320A3
:102C3000FFF7C0FD50E700BF00002740000026401E
:102C40000C31000844AD0010400D030070AD0010C1
:102C500058AD00105CAD001060AD001064AD001008
:102C600068AD00106CAD001002004A0008B50448C1
:102C700004F064F808B1002008BD0248FCE700BF7A
:102C8000E02200080000020610B500F0C9FA044670
:102C9000FFF7A2FB0CB1204610BDFFF7E7FF04468B
:102CA000F9E708B5012001F061FE08BD704700009A
:102CB00030B4604BD3F8802302F00F0202F1D00150
:102CC00053F8213013F007031BD0042B1BD05A4BB1
:102CD000002A41D1574AD2F8900500F00100D2F8FD
:102CE0008815C1F30171D2F8882512F0405F19D020
:102CF000504AD2F88825C2F30172012A13D000226B
:102D000011E04E4BE4E702F1C0034A4951F8233089
:102D100003F01F03112B02D04FF4FA43D8E74FF40E
:102D20000043D5E7012202B108B9032917D1414A6E
:102D3000D2F88015C1F31101D2F88405C0F30C005C
:102D4000D2F88025C2F300620132B3FBF0F301FB3D
:102D500003F3B3FBF2F302E0013A012A33D9354A17
:102D6000D2F88023C2F30112D340354A1360354AAA
:102D70009168C1F30721013141F208001258120E87
:102D80000132B3FBF2F230480260B3FBF1F32F4A99
:102D900013602F4A136003F5742202F23F222D497B
:102DA000A1FB0212C2F387422B490A7003F2E733F8
:102DB0002A4AA2FB03239B09294A1360DB03294A01
:102DC000136030BC70471B4902F5C87051F82040B1
:102DD00004F0010402F5C07551F82500C0F301703C
:102DE00051F8251011F0405F09D02946114D55F8D2
:102DF0002110C1F30171012902D0002100E001215D
:102E000001B10CB90328AAD10A4C02F5C07254F8DA
:102E1000221001F07F0154F82200C0F3042054F87E
:102E20002220C2F3044201FB03F3B3FBF0F3B3FB34
:102E3000F2F394E70000264000366E0100127A009B
:102E4000002300080000204004230008FC220008A2
:102E50000C23000883DE1B4314230008D34D6210AB
:102E6000102300080823000808B50C4801F0E2F818
:102E7000FFF71CFFFFF71CFF00221146032001F0A3
:102E8000E3FD074801F0E2FB064B1B6893F84D3069
:102E900003B908BD044801F051FCFAE7D0B00010B6
:102EA000002B00080C31000878AD001008B5FFF7C2
:102EB0008CFA074AD2F8883043F47003C2F888309D
:102EC000BFF34F8FBFF36F8FFFF783FA08BD00BFCB
:102ED00000ED00E02DE9F041EFF30587103F3FB230
:102EE0000E2F06D8304B1B689E6906EBC7160024D0
:102EF00029E02D4B1B689E69F9E740F2B6612B482B
:102F000003F0ACFC24E040F21171284803F0A6FC69
:102F10002DE040F21331254803F0A0FC35E00221FA
:102F200008EBC708224B53F82830224A52F82800F1
:102F30009847082D30D87369012303FA05F57561A8
:102F400073690134E4B2072C2CD82546082CD4D858
:102F5000F369EB4013F0010FF3D0A04604EBC70375
:102F6000134A52F82330002BE3D0082DCBD80E4B58
:102F70001B6893F8783099596B00D94001F0030130
:102F80004B1E012BCCD9082DC3D83369EB4013F06D
:102F9000010FC4D00121C3E740F24A61034803F0A6
:102FA0005DFCC8E7BDE8F0810C310008ACAD001055
:102FB000602E0008802C000870B504460E461546A9
:102FC000FFF703FAC4F30743DB0053FA84F4044B1E
:102FD00043F82460034B43F82450FFF7FAF970BD1F
:102FE000602E0008802C00082DE9F04782B00F46C3
:102FF00091461E464FEA20485FFA88F40E2C4ED8C0
:103000003C4B1B689B6903EBC41AC5B2082D4BD817
:10301000032F4FD86800374B1B6893F8781051F88E
:103020000A300322824023EA020307F003078740A5
:103030001F4341F80A700E2C42D82E4B1B689F6923
:1030400007EBC417082D3FD8012E04D940F2746154
:10305000294803F003FCB8690123AB4020EA0300D0
:1030600006F0010606FA05F50543BD6122B2C8F374
:103070004218224B53F8283004F01F05EB4013F0A0
:10308000010F27D04FEA49195FFA89F904F160442A
:1030900004F5614484F8009302B0BDE8F087154B55
:1030A0001B68D3F818A0B0E740F2F261124803F0B1
:1030B000D5FBADE740F2F3610F4803F0CFFBA9E782
:1030C0000C4B1B689F69BDE740F273610A4803F02F
:1030D000C5FBB9E7ADF80020CDF804900849684673
:1030E00003F05EFB012303FA05F5044B43F8285077
:1030F000D2E700BF0C310008ACAD001000E100E0E9
:10310000D52E00102DE9F0470446884691461E460C
:103110003A4B33F81050431C152B04D8DBB2374A16
:1031200032F8137001E04FF48B770123A340344A47
:10313000134207D1454435803388BB425BD200201F
:10314000BDE8F087A31E112B16D8DFE803F00915A0
:103150001D15150C0F151515151515151515151229
:10316000DFF8A8A012E0DFF8A8A00FE0DFF8A4A025
:103170000CE0DFF8A4A009E04FF4F871214803F057
:103180006DFB4FF0000A01E0DFF890A03780BAF144
:10319000000FD1D0023C112C12D8DFE804F0091145
:1031A0001811110B0D111111111111111111110F14
:1031B00001220DE003220BE0102209E0022207E0C9
:1031C00040F205210F4803F049FB002200E00422F1
:1031D0009045B1D21AF808302B4419FA83F9A6F8B1
:1031E000009008F101039342A6DAD04498F80170E8
:1031F0003D44AFB2A0E70448A2E700BF1CAE0010F8
:1032000094010800FCAD001000000204DCAD0010C9
:10321000E4AD0010E8AD0010F8AD0010E0AD001016
:1032200000207047F0B583B00446FFF7CEF806469D
:103230000DF10603A27861782078FFF763FF054659
:1032400070B9BDF80630C3F3C70203F00703154990
:10325000895C012202FA03F3194214BF17460027C2
:1032600005B9EFB92DB13046FFF7B3F8284603B0E2
:10327000F0BD0DF10603A27861782078FFF742FFD8
:1032800005460028EFD1BDF80630C3F3C70103F0AF
:103290000703044801229A40435C13434354E2E786
:1032A000014DE0E7403000080100020430B583B072
:1032B0000446FFF78AF805460DF10603A278617807
:1032C0002078FFF71FFF014660B9BDF80630C3F351
:1032D000C70003F00703094C01229A40235C23EA4C
:1032E0000203235421B92846FFF773F803B030BD19
:1032F00040F27721024803F0B1FAF4E740300008C9
:10330000FCAD00102DE9F04782B081460D461AB1A0
:103310004FF0030A144F1BE08A46FBE70134AFB1BC
:10332000A04513DD04238DF804308DF80550E6B276
:103330008DF806600DEB0300FFF774FF0028EDD158
:1033400089F8005089F801600027E7E70135EDB200
:1033500037B1554504D8054B13F805800024DEE746
:10336000384602B0BDE8F08702000204D8AD001074
:1033700000B583B004238DF8043003788DF8053050
:1033800043788DF8063001A8FFF790FF03B05DF891
:1033900004FB000070B582B00568C5F307430E2B2F
:1033A00016D81A4A1268966906EBC3160489230ACE
:1033B000E4B2EDB20093012322462946304601F0E3
:1033C00071F80A2C08D00B2C13D0002002B070BD6D
:1033D0000E4B1B689E69E9E7072D04D8012303FA09
:1033E00005F5B560F1E740F23131094803F036FAEE
:1033F000F4E7072D04D8012303FA05F57560E4E727
:1034000040F23131024803F029FAF4E70C310008A8
:10341000ACAD001010B582B00146C0F307430E2BCF
:103420000CD9094B1B6898690024009401230822D9
:10343000C9B201F037F8204602B010BD024A126846
:10344000906900EBC310EFE70C3100081238202818
:103450002AD8DFE800F01F29292929292929292923
:103460002929292929292929292929112C1315171D
:10347000191B1D21232527000020704702207047BB
:1034800003207047042070470520704706207047CE
:103490000720704708207047092070470A207047AE
:1034A0000B2070470C20704701BE002070470120A0
:1034B0007047012805D0022801D000207047032062
:1034C0007047022070470138032809D8DFE800F070
:1034D000020B040602207047062070470820704740
:1034E00001BE0220704704207047814206D8411A6D
:1034F000642303FB01F1B1FBF0F07047091A642368
:1035000003FB01F1B1FBF0F07047000008B5EFF3E9
:103510000580103800B2FFF799FF044B53F82030B4
:1035200003F11C01186802F09FFB08BDD8300008A9
:1035300038B505460C46002003F020F8084B1B6800
:103540001A68D3F88030D3581B0E013300EB5300B8
:10355000B0FBF3F005FB0444B0FBF4F038BD00BF52
:103560000C31000870B586B00546082422E005FB42
:1035700004F6002003F002F8194B1B681A68D3F810
:103580008030D3581B0E013300EB5300B0FBF3F037
:1035900000EB5600B0FBF6F021460138FFF7C8FFFC
:1035A00001462846FFF7A1FF06AB234403F8140C9D
:1035B0000134E4B2102CDAD99DF80C10082003462F
:1035C00001E00133DBB2102B08D806AA1A4412F826
:1035D000142C8A42F5D211461846F2E706B070BDA7
:1035E0000C3100082DE9F04782B089464668334621
:1035F00053F81C2B00920193684602F0F1FA8046C2
:10360000F568B5F1FF3F0ED0C5F307430E2B05D883
:10361000A84A1268926902EBC31A06E0A54B1B6820
:10362000D3F818A001E04FF0000A7469B4F1FF3F2D
:103630000DD0C4F307430E2B05D89E4A1268976934
:1036400007EBC31704E09B4B1B689F6900E0002752
:10365000B9F1020F00F0B680B9F1080F00F0B280A6
:10366000B9F1010F03D0404602B0BDE8F087B8F1D0
:10367000000FF8D1BAF1000F31D0EDB2072D60D8AC
:103680008C4B1A689369AAEB0303DB0952691B018F
:10369000D118032D5BD92A1F4B68D200D34003F009
:1036A0001F0386F8BC30072D57D80123AB40CAF85A
:1036B0000830072D57D87F4B1A689369AAEB03038C
:1036C000DB0952691B01D118032D52D9043D4B6807
:1036D000ED001F2202FA05F523EA05054D60002FD3
:1036E000C1D0E4B2072C4DD8724B1A689369FB1A0B
:1036F000DB0952691B01D118032C49D9221F4B68E1
:10370000D200D34003F01F0386F8BD30072C45D804
:103710000123A340BB60072C46D8664B1A68936907
:10372000FF1AFF0952693F01D019032C42D9231F08
:103730004268DB001F2101FA03F322EA030343601E
:1037400091E740F2BF215C4803F088F898E7D3582E
:10375000EA00D34003F01F03A3E74FF45C7156481F
:1037600003F07CF8A1E740F29221534803F076F889
:10377000A1E7D158ED001F2000FA05F521EA050167
:10378000D150ACE740F2BF214B4803F067F8ABE7FC
:10379000D358E200D34003F01F03B5E74FF45C7148
:1037A000454803F05BF8B3E740F29221424803F04A
:1037B00055F8B2E7D159E4001F23A34021EA0303DF
:1037C000D35150E7BAF1000F1FD0EDB296F8BC907C
:1037D000072D3DD839F01F0340D1364B1A68936945
:1037E000AAEB0303DB0951691B01CA18032D3BD95E
:1037F000043D5368ED001F21A94023EA010309F0AD
:103800001F0909FA05F51D435560002F3FF42BAF42
:10381000E4B296F8BD50072C33D835F01F0336D1EB
:10382000244B1B689A69BF1AFF095B693F01D919CC
:10383000032C32D9043C4B68E4001F22A24023EA47
:10384000020305F01F0505FA04F41C434C600AE767
:1038500040F29221184803F001F8BBE740F29321AF
:10386000154802F0FBFFB8E7CA58ED001F20A8403A
:1038700022EA000209F01F0909FA05F51543CD50A7
:10388000C3E740F292210C4802F0E8FFC5E740F29E
:103890009321094802F0E2FFC2E7DA59E4001F2150
:1038A000A14022EA010205F01F0505FA04F41443C1
:1038B000DC51D8E60C310008ACAD001010B5044660
:1038C00078B32379162B19D062791F4B33F9123054
:1038D000002B0CDB03F01F015B0901228A4020331F
:1038E0001A4941F82320BFF34F8FBFF36F8F201D7C
:1038F000FFF7DCFC04F1A00003F068FAA068B0F167
:10390000FF3F10D1E068B0F1FF3F0FD16069B0F127
:10391000FF3F0ED12069B0F1FF3F0DD1237E73B17F
:1039200010BD01BECDE700F05DFBEBE700F05AFBF8
:10393000ECE700F057FBEDE700F054FBEEE704F195
:103940001900FFF715FDEBE77CAE001000E100E089
:103950002DE9F04104460E4617460021006802F0AA
:103960006BF8637EA27E032B1CD80BB9072A08D9FB
:10397000012B00F0AF80022B00F0B080032B11D19F
:1039800082B9A749096891F86D50AB400320A8405F
:10399000034091F86C0002408968134343F0804370
:1039A000C1F800343046FFF7DDFD0546A06506FB93
:1039B00000F8002002F0E2FD994B1B681A68D3F86A
:1039C0008030D3581B0E013300EB5300B0FBF3F0F3
:1039D00000EB5800B0FBF8F00138627E931EDBB2BA
:1039E000012B7FD9A37E002A40F0DD80072B00F257
:1039F000F880FF2800F2F880894A12689168B2F8CE
:103A00007020114451F8232022F47F424FEA002C09
:103A10001FFA8CFC42EA0C0241F823204FF0000808
:103A20002946FFF785FD014607B138603046FFF7AC
:103A30005CFD0A2800F2E480637EA07E032B2CD874
:103A40000BB9072808D9012B00F0DD80022B00F00C
:103A5000DE80032B21D100BB714A116891F86F20E1
:103A6000032606FA02F291F86C7091F86EC007FA1C
:103A70000CFC42EA0C0291F86DC003FA0CF306FA52
:103A80000CF63340134338408A68034343F0004345
:103A9000C2F800348B68D3F8003494F87030002BEF
:103AA00000F0B9804FF48033E26D082A40F2B5800F
:103AB00000221343013D05F00F051D43236845F027
:103AC00000751D602268136843F000431360404690
:103AD000BDE8F0810F2A7FF654AF4CE7032A7FF64A
:103AE00050AF4BE7A37E022A24D0032A52D1002BE9
:103AF00053D1B0F1807F53D2DFF824C1DCF800202D
:103B00009168B2F87620114451F82320D2B242EAEB
:103B1000002241F82320DCF800108A68B1F8761002
:103B20000A4452F8231021F0F80142F823104FF014
:103B3000000875E7032B27D8B0F5803F27D2DFF8C0
:103B4000E0E0DEF800108A68B1F874C094445CF8D4
:103B5000232022F47F0222F47F42010221F07F41E0
:103B600021F0FF010A434CF82320DEF800108A6898
:103B7000B1F874100A4452F8231021F0F80142F809
:103B800023104FF000084BE7DFF8988048E7DFF894
:103B9000948045E7DFF88C8042E7DFF888803FE7D4
:103BA000DFF880803CE7012A21D10F2B22D8B0F525
:103BB000803F22D21A4A11688A68B1F872C09444D0
:103BC0005CF8232022F47F0222F47F42010221F0DC
:103BD0007F4121F0FF010A434CF823204FF00008F9
:103BE0001EE7DFF840801BE7DFF8388018E7DFF8D2
:103BF000348015E7DFF82C8012E7DFF828800FE724
:103C0000DFF8248018E70F287FF626AF1EE7032889
:103C10007FF622AF1DE7002346E74FF4006248E736
:103C20000C31000801004A00030059042DE9F04757
:103C300088B0884691469A46044630B316232371CD
:103C4000012323764FF0FF33A360E36023616361B8
:103C50001322B949404600F0B4F906461322B74989
:103C6000484600F0AEF90746002E00F060810028BB
:103C700000F05F817368597843685A78914206D0A2
:103C8000AF4D284608B0BDE8F08701BED6E71A88D8
:103C90009B78ADF808208DF80A3002A8FFF7C2FA29
:103CA00005460028EDD1029BA3801B0CA3710823BD
:103CB0008DF80030C8F307438DF801308DF802808D
:103CC000009BADF814301B0C8DF81630059BADF839
:103CD00010301B0C8DF81230049BADF80C301B0C0F
:103CE0008DF80E3003A8FFF79DFA054608B9C4F811
:103CF0000C80002D00F09C806279924B53F82230AA
:103D000023604DB9BAF1000F00F0B780012323768C
:103D1000BAF80030A4F81930002D00F0B880002D5A
:103D200000F0EB80002D00F0ED80002D79D104F142
:103D30005406854F0FCF0FC60FCF0FC60FCF0FC63C
:103D400097E80F0086E80F00109B002B00F0DF8043
:103D5000109B1B68E365109B1879FFF7B4FB84F890
:103D60006100109B187AFFF7A4FB84F8620004F14D
:103D70001C06324604F15401206801F08BFC109BB4
:103D8000D96829B13346109A1269206801F060FEA3
:103D90002368C4F89830C4F89C406C4BC4F8A03039
:103DA000012384F8A4300023C4F8A83004F1980259
:103DB000C4F8AC20C4F8B030C4F8B43004F1A000AA
:103DC00002F0BCFF00B9624D0023C4F8C030C4F853
:103DD000C430C4F8943062795E4B43F82240637972
:103DE0005D4E36F91330ADF80030072301935B497F
:103DF000684602F0D5FC637936F91330002B07DBF7
:103E000003F01F015B0901228A40554941F8232034
:103E1000237E002B00F083802268136843F0004368
:103E20001360002D3FF42DAF2046FFF747FD28E734
:103E300008238DF80030C9F307438DF801308DF861
:103E40000290009BADF81C301B0C8DF81E30079BB8
:103E5000ADF818301B0C8DF81A30069BADF80C30FD
:103E60001B0C8DF80E3003A8FFF7DCF9054600287F
:103E70007FF442AFC4F808903EE700232376012286
:103E8000114604F11900FFF73DFA054644E762794F
:103E9000637EA07E3349096891F83D50AA4224D23E
:103EA000032B24D80BB9072806D9012B17D0022BD6
:103EB00018D0032B1DD1F0B991F86DC003FA0CF3A3
:103EC000032505FA0CF52B4091F86C5028408968C1
:103ED000034302F5407241F8223000251FE70F2806
:103EE000EAD9E4E70328E7D9E3E71F4D17E71E4DBA
:103EF00015E71D4D13E71C4D11E73846FFF74AFA49
:103F000005460FE73046FFF745FA05460DE704F191
:103F10001C0204F15401206801F0BCFB38E70022C8
:103F20004FF4E1312046FFF713FD054679E7044DD4
:103F3000A7E6034DA5E600BFECAF001008AF0010E8
:103F400000005A0448AE001098AE0010E53500108D
:103F500001005A04D83000087CAE00100D35001066
:103F600000E100E00C31000801004A00F8B5064607
:103F70000F4615460368D3F84033144602E0336811
:103F8000D3F84033B3F1FF3F07D1002DF7D03CB158
:103F9000012002F03FFC013CF1E73B700020F8BD3E
:103FA0000048FCE702005A0438B505460C460020DC
:103FB00003E02146286801F036FA0028F9D00020F5
:103FC00038BD70B406460023934208D203EB430584
:103FD000AC0008190C59B44202D00133F4E70020B8
:103FE00070BC704710B584B00446FFF713FA00B1F7
:103FF00001BE08238DF80030C4F307438DF801306B
:104000008DF80240009BADF80C301B0C8DF80E3083
:10401000039BADF808301B0C8DF80A30029BADF8FD
:1040200004301B0C8DF8063001A8FFF73FF904B0EF
:1040300010BD0000014B1860704700BF0C31000834
:104040001D4B98422FD00ED91C4B984231D019D914
:104050001B4B984223D00133984222D0023B984216
:104060001BD01848704740281FD006D980281ED082
:10407000B0F5807FF5D11048704760B11028F0D1BD
:1040800011487047B0F1204F05D0104B9842E8D14D
:104090004FF4A0007047002070470D4870470D484E
:1040A00070470D487047044870470C4870470C48EB
:1040B00070474FF4A400704706005200010000F062
:1040C000040000F0FF00520001005000090000A0B1
:1040D0000100520002005200030052000200500092
:1040E0000500520038B5134B1B6893F82E30012B96
:1040F00017D9104B1D682B6AB5F8AC2013442C4619
:10410000D5F8B020D358002B11DB0B4B1868FFF704
:1041100097FF6B6801229A6063689B68002BFBD154
:1041200038BD4FF4E971054802F098FBE1E7044817
:10413000F6E700BF0C3100086430000884B10010BD
:1041400002005000002800F0A0812DE9F041064651
:10415000002A00F09C8114460D46072900F20081D8
:104160002368012B00F20181636833F00F0340F0F4
:104170000181237A33F01F0340F00181E368032BB0
:1041800000F202812369012B00F203816369012B94
:1041900000F20481A369012B00F20581E369032B7E
:1041A00000F20681236A012B00F20781636A012B6A
:1041B00000F20881A36A012B00F20981E36A032B54
:1041C00000F20A81236B072B00F20B812768072D71
:1041D00000F20C81012F00F20F81002F00F01281FC
:1041E0000123AB40B3606768072D00F20F8137F001
:1041F0000F0340F01181A800A64B1B6893F87910BB
:104200008B590F22824023EA020207F00F038340FA
:1042100013438B51277A072D00F2048137F01F03D7
:1042200040F006819B4B1A689369F31ADB095269C7
:104230001B01D018032D40F201812B1F4168DA00C9
:104240001F23934021EA030107F01F0393400B4310
:104250004360E768082D00F20081032F00F203811C
:1042600068008C4B1B6893F878108B5903228240AE
:1042700023EA020207F00303834013438B512769AB
:10428000082D00F2F680012F04D940F274618248B3
:1042900002F0E4FAB3690122AA4023EA020307F01C
:1042A0000107AF401F43B761D4F81480072D00F217
:1042B000E680B8F1010F04D940F20E41764802F0D1
:1042C000CDFA74490B6893F87AC05CF806000127B0
:1042D000AF4020EA070008F00102AA4002434CF870
:1042E00006206A0002F1100C032303FA0CF31F43AB
:1042F0000B6893F87B00835923EA0707A36903F04F
:104300000103AB403B43E26902F0030202FA0CF204
:10431000134383510B6893F87C20B15821F0FF01BF
:10432000236A03F00103606A400000F002000343C7
:10433000A06A800000F004000343E06AC00000F0BF
:1043400018000343206B4001C0B20343AD0005F4E5
:104350007E7503FA05F50D43B5500020BDE8F081E8
:104360004F214E4802F07AFAFAE650214B4802F00B
:1043700075FAF9E65121494802F070FAF9E652213E
:10438000464802F06BFAF9E65321444802F066FA17
:10439000F8E65421414802F061FAF7E655213F481A
:1043A00002F05CFAF6E656213C4802F057FAF5E6D0
:1043B00057213A4802F052FAF4E65821374802F001
:1043C0004DFAF3E65921354802F048FAF2E65A214F
:1043D000324802F043FAF1E65B21304802F03EFA3F
:1043E000F0E65C212D4802F039FAEFE640F2313177
:1043F000294802F033FAEDE640F23231264802F065
:104400002DFAEAE60123AB407360ECE640F2CE31D0
:10441000214802F023FAEAE640F2CF311E4802F0CA
:104420001DFAE8E640F292211B4802F017FAF5E681
:1044300040F29321184802F011FAF3E6D1584FEAFE
:10444000C50C1F2000FA0CF021EA000107F01F073D
:1044500007FA0CF70F43D750FBE640F2F2610E4823
:1044600002F0FCF9F9E640F2F3610B4802F0F6F9CC
:10447000F6E640F27361084802F0F0F903E740F213
:104480000D41054802F0EAF913E705487047044872
:1044900064E700BF0C310008ACAD0010B4B10010EF
:1044A00001005A002DE9F04104460D461746984692
:1044B0009DF8186007293FD837F00F0341D1B8F1B4
:1044C000010F43D836F01F0345D123680122AA40CB
:1044D00023EA020208F00103AB40134323602D4B93
:1044E0001B6893F879100B59A8000F22824023EA29
:1044F000020307F00F0787401F430F51072D2FD8E6
:1045000036F01F0332D1234B1B689A69A41AE409C1
:104510005B6924011919032D2ED9043D4B68ED0068
:104520001F22AA4023EA020306F01F0606FA05F539
:104530001D434D60BDE8F081E321174802F08EF97C
:10454000BAE7E421144802F089F9B8E7E5211248F6
:1045500002F084F9B6E7E6210F4802F07FF9B4E7EC
:1045600040F292210D4802F079F9C9E740F2932117
:104570000A4802F073F9C6E71A59ED001F21A94055
:1045800022EA010206F01F0606FA05F515431D5141
:10459000D0E700BF0C310008B4B10010ACAD001082
:1045A00038B50C4B1B68D3F8B0301B58002B0EDA13
:1045B0000C4605460B0C1B041BB9A4B26C60002012
:1045C00038BD4FF43971044802F048F9F5E7034863
:1045D000F6E700BF0C31000884B1001001008A002A
:1045E00038B50368002B0FDA0C460546C2600B0C89
:1045F0001B041BB9A4B2AC60002038BD40F2CA2134
:10460000024802F02BF9F5E70148F6E784B1001003
:1046100001008A0038B504460D4651B1084B1B68AD
:10462000D3F8B0301B59002B08DAE3682B60002068
:1046300038BDA321034802F011F9EFE70248F7E77C
:104640000C310008DCB1001001008A00034B1B682C
:1046500003B17047014B1860FBE700BF78300008DA
:104660002DE9F8430446884691461E46089F2F4B85
:104670001B68002B3DD02D4B1B682C2000FB04F049
:104680001C18F5B21D50C6F307236360360CA660F4
:10469000274B1B6893F82E309D422FD2244B1B686A
:1046A0001A6AB3F8AC1001FB05252561666893F81A
:1046B0002F309E4228D21E4B1B681D6A803605EBA8
:1046C00046156561A668330C1B041BBB330C1B0429
:1046D00033BBB3B243EA0646AE60C4F81C90C4F8DC
:1046E00020800023A36117B1B7F90030A381BDE892
:1046F000F883BF210F4802F0B1F8BCE74FF4E9712D
:104700000D4802F0ABF8C9E74FF4F7710A4802F020
:10471000A5F8D0E740F20D21074802F09FF8D5E751
:1047200040F20E21044802F099F8D2E778300008F0
:104730000C31000808B2001084B10010F0B58FB041
:10474000044600283FD0A369072B41D8E36A002B19
:1047500043D0236B002B45D007AD04F114060FCED8
:104760000FC537682F6002AD26460FCE0FC53368E0
:104770002B601F4B1B689B8E079A1344ADF830309B
:10478000089B0D93A26AE16A0CAD00953B460A981E
:10479000FFF766FF00210091069B0A460598FFF788
:1047A0005FFF216B284601F0FBFFBDF93030002B85
:1047B00007DB03F01F015B0901228A400D4941F824
:1047C00023200FB0F0BD5C210B4802F047F8BAE798
:1047D0006021094802F042F8B8E76221064802F079
:1047E0003DF8B6E76321044802F038F8B4E700BFAB
:1047F0000C31000800E100E008B20010F8B50646F0
:104800000F461D46144642B3204B1B685BB31F4B3B
:104810001B682C2101FB063001FB07314B6801228C
:1048200002FA03F31B04466802FA06F6026932B381
:104830008F6937BB1268002A25DA22881343236068
:104840000369DC6001238B614D620469330C1B0436
:104850007BB9B6B2A6600020F8BD40F207110C4843
:1048600001F0FCFFD0E74FF48471094801F0F6FF36
:10487000CDE740F2CA21074801F0F0FFE9E706481A
:10488000EAE70648E8E70548E6E700BF78300008B1
:1048900008B2001084B1001004028A0007028A00E6
:1048A00070B582B000230193044680B12369A3B19F
:1048B0006369C3B1236AE3B16369DD682A0C1ED161
:1048C000ADB2002D3DD163691B6802B070BD40F2EE
:1048D000DB11244801F0C2FFE8E74FF4EE712148F4
:1048E00001F0BCFFE4E740F2DD111E4801F0B6FF25
:1048F000E0E74FF4EF711B4801F0B0FFDCE7120472
:104900001A601B682069184B1B68D3F8B0301B581D
:10491000002BD5DA01A9FFF77DFE60B90198036885
:104920001E0CDBB2E2699A4206D9226A52F82330A1
:1049300013B1984700E0002631462069FFF730FEAA
:10494000BEE763691D601B68636A2BB1984700234B
:1049500063620023A361B6E7A36A002BF9D09847EE
:10496000F7E700BF08B200100C31000810B504468C
:10497000084B1B683BB1074B1B682C2000FB043025
:10498000FFF78EFF10BD40F2BB11034801F066FF38
:10499000F1E700BF7830000808B20010254B1B6813
:1049A00093F82E3083423DD900293DD00B6813F097
:1049B0001F0F3BD170B50D4604461E4B1B6893F884
:1049C0002E30984222D21B4B1B68186AB3F8AC30C9
:1049D00003FB0404184E34602A68D208002168687A
:1049E00003F025FA00212046FFF7DAFD34689DB177
:1049F0002A4600212046FFF7F3FDC8B900210E4BDF
:104A00001868FFF7CDFDA0B10C4812E04FF4E97132
:104A10000B4801F023FFD6E740F2A231084801F02D
:104A20001DFFE5E70748704706487047054870478F
:104A3000024870BD0C3100087C30000801018A007A
:104A400084B1001003018A0010B5044613464AB130
:104A50000BB311B3124A1160536011462046FFF7A1
:104A60009DFF10BD0029F3D10E4B1B6893F82E302B
:104A700098420AD20B4B1B681A6AB3F8AC3003FB9E
:104A80000424094B1C600020EBE74FF4E971074850
:104A900001F0E4FEEEE70648E3E70548E1E700BF82
:104AA000402A00080C3100087C30000884B1001056
:104AB00003018A002DE9F041194B1B68DD682B6862
:104AC00083422BD90C46460900F01F00012303FA4C
:104AD00000F851B10027124B18680368002B08DB5F
:104AE000104DBCB12846BDE8F081FDF76EFC0746CD
:104AF000F1E76A6852F8263013EA080F08D023EA73
:104B0000080342F8263000250021FFF749FDE8E7B9
:104B1000054DF9E73846FDF75CFCE3E7034DE1E7B7
:104B20007C300008030188000201880004018A002B
:104B30000B4B1B68DB681A6882420ED9410900F0F2
:104B40001F00012202FA00F05B6853F82130034293
:104B500001D104487047044870470448704700BFBB
:104B60007C300008000188000101880004018A00EF
:104B700010B504460A4B1B685B6CC34013F0010F71
:104B800008D0074B1B681B691034A402185900F0A9
:104B90000F0010BDC821034801F060FEF1E700BF1F
:104BA0000C31000834B200102DE9F04303685F4E69
:104BB000A6FB034C4FEA5C1C642707FB1C3C5C4CC7
:104BC000A4FB0C53DD0805EB850E4FEA4E03ACEB5E
:104BD000030303EB051303F07F054368A6FB03C63D
:104BE000760907FB1636A4FB0643DB0803EB8307B5
:104BF0007C00341B04EB03131B0203F4FE432B4322
:104C0000447B002C7BD0047B002C75D043F4001334
:104C100043F480038468454EA6FB04567609642558
:104C200005FB1646424CA4FB0654E50805EB850738
:104C30007C00341B04EB0514240404F4F81423430F
:104C400004693A4EA6FB045E4FEA5E1E4FF0640C08
:104C50000CFB1E4E364DA5FB0E74E70807EB8708CC
:104C60004FEA4804AEEB040404EB0714240604F0F6
:104C7000E06423434469A6FB047E4FEA5E1E0CFBFE
:104C80001E4EA5FB0E74E70807EB87084FEA4804A1
:104C9000AEEB040404EB071404F03F048769A6FBA1
:104CA00007E84FEA58180CFB1878A5FB08E74FEA0D
:104CB000D70E0EEB8E094FEA4907A8EB070707EB63
:104CC0000E173F0207F4F8573C43C069A6FB007675
:104CD00076090CFB1606A5FB0650C50805EB8507F3
:104CE0007800301A00EB0510000400F47F00044344
:104CF0000B601460BDE8F08323F4001388E7846838
:104D00000A4EA6FB04567609642505FB1646084C98
:104D1000A4FB0654E50805EB85077C00341B04EB77
:104D20000514240404F47C14234389E71F85EB5104
:104D3000CDCCCCCCF0B583B0002800F0A8800446E0
:104D400003683B2B44D863683B2B46D8A368172BDA
:104D500048D82369013B062B49D8A369013B0B2B9B
:104D60004AD8E369632B4CD8A669E56905F5FA656D
:104D7000771E0B2F4AD8002D4ED0484BDF5D022EF8
:104D800050D06369002B00F08480BB4200F2838026
:104D900001AA69462046FFF707FFFDF716FB054607
:104DA0003F4B1B6913F0010F60D13D4B9B6813F023
:104DB000010F5DD13A4A936843F0020393600024E7
:104DC000002C57D02846FDF704FB204603B0F0BD69
:104DD0006021344801F042FDB5E76121314801F01E
:104DE0003DFDB3E762212F4801F038FDB1E76321B3
:104DF0002C4801F033FDB0E764212A4801F02EFD74
:104E0000AFE76521274801F029FDADE740F2CB313E
:104E1000254801F023FDAEE74FF47371224801F0FD
:104E20001DFDAAE7C5B115F0030F07D11F4BA3FB6A
:104E300005235B09642202FB1353ABB91B4BA3FB95
:104E40000523DB094FF4C87202FB135353B100234F
:104E5000002B96D0013794E740F2AD31124801F0B3
:104E6000FDFCE0E70123F3E70123F1E7104CA7E79E
:104E70000F4CA5E70A4B009A5A61019A9A619A6809
:104E800022F002029A603E2001F0DCFC9AE7094C15
:104E90009BE7084C99E7074C97E700BFB0B20010BA
:104EA000000027405CB2001084B200101F85EB5157
:104EB0000300A2000100A20008B5FFF73BFF08BDF8
:104EC00070B50446002857D0FDF77FFA0546384BE9
:104ED0001B6913F0010F04D1354B9B6813F0020FCF
:104EE0004FD02846FDF775FA314B5A699B69C2F3DA
:104EF000021101EB8101480002F00F01084420601B
:104F0000110AC1F3021000EB8000450001F00F010F
:104F100029446160C2F38051617300293AD1150CB4
:104F2000C5F3011101EB8101480005F00F0528448C
:104F3000A06000212173C2F302622261C3F3011257
:104F400002EB8202510003F00F0211446161190A61
:104F5000C1F3001290001044420001F00F010A4416
:104F6000A2611B0CC3F3031202EB8202510003F097
:104F70000F030B44E36170BD96210E4801F06EFCF7
:104F8000A2E70B4E0123B360B72001F05BFC0023C6
:104F9000B360A6E7100CC0F300118D000D4469004A
:104FA00000F00F000144A160C2F340512173C2E739
:104FB000000027405CB200102DE9F8430E4607467A
:104FC000002842D0002E45D0002F00F0F380002EA4
:104FD00000F0F2803268794B1340002B3FD17268A9
:104FE000774B1340002B3FD1B36813F0FC2F40D117
:104FF000F36813F0FC2F41D1337D032B43D8B36901
:10500000B3F5803F44D2F36D072B46D8336EB3F52A
:10501000803F47D2736EB3F5803F48D2736843F048
:1050200000437B60B3683B61F3687B613369BB61BC
:10503000337D9B07FB61B3693B62336803F46068AF
:105040007368C3F3800900244DE044215D4801F0FA
:1050500005FCB7E745215B4801F000FCB4E75421AB
:10506000584801F0FBFBBAE75521564801F0F6FB22
:10507000BAE75621534801F0F1FBB9E757215148EF
:1050800001F0ECFBB8E758214E4801F0E7FBB6E72A
:1050900059214C4801F0E2FBB5E75A21494801F09B
:1050A000DDFBB3E75B21474801F0D8FBB2E75C21A9
:1050B000444801F0D3FBB1E76D21424801F0CEFB3B
:1050C0001CE0414B002223F81520726F02F11C7383
:1050D00003F58033520093FBF2F31BB23B4A42F8D4
:1050E00025300134E4B20F2C20D82546A31D06EB51
:1050F00083035A68364B1340002BDDD1AB1D06EB02
:105100008303596805F1200247F822105B6813F009
:10511000012FD6D1B8F5606FD3D1B9F1000FD0D03F
:10512000294B4FF4784223F81520CEE7F36DC7F8EA
:105130001832F36DC7F81032336EC7F82832336E69
:10514000C7F82032736EC7F83832736EC7F8303242
:1051500096F870309BB1B36EB3F1804F20D2F36EEE
:1051600023F44F0323F0FF03FBB96FF04043C7F86C
:105170000433B36EC7F80033F36EC7F84433D7F87F
:10518000003F3F2B02D0D7F8003F13B90B23C7F8DD
:10519000003F336843F400133B600020BDE8F88310
:1051A0008C21084801F05AFBD9E78D21054801F010
:1051B00055FBDAE70748F1E70648EFE70811DF009B
:1051C00001FE3020BCB20010103100083031000860
:1051D00088CA887E0100060008B50368002B0ADB38
:1051E000D0F8A032002BFBDB036843F000430360E0
:1051F000022001F027FB08BD38B505460C46012901
:1052000004D8012C08D001236B6238BD40F27B1119
:10521000044801F023FBF4E76B6843F480336B60D0
:10522000F3E700BFBCB2001038B505460C460F29A5
:1052300009D80F2C0FD8203455F8243013F0012F43
:1052400007D1012008E040F25E21044801F006FB8E
:10525000EFE7002000E0002038BD00BFBCB2001026
:1052600038B505460C460F2904D80F2C08D9002361
:10527000184638BD4FF40B710A4801F0EFFAF4E715
:1052800021462846FFF7D0FF034628B96A6812F086
:10529000080FEDD00123EBE76A6812F0040FE7D1A5
:1052A0000023E5E7BCB2001038B505460C460F29CF
:1052B00007D80F2C0BD8603455F8240080B200B208
:1052C00038BD40F28521034801F0C8FAF1E700201B
:1052D000F5E700BFBCB20010F8B506460D4614460F
:1052E0000F2928D80F2D31D8736813F0800F1CD1E7
:1052F00005F1200356F8233013F4806F15D077683A
:10530000C7F302177B1C01279F40736813F4807F4B
:1053100002D1102F00D9102729463046FFF7A0FFF1
:1053200078B9A4B2B4FBF7F424B2094B33F81500F2
:10533000241A20B2F8BD40F28531064801F08EFAF9
:10534000D0E73FB294FBF7F424B2EEE72046F1E752
:1053500010310008BCB2001070B505460C46164668
:105360000F2907D80F2C2BD86B6813F0020F07D02A
:10537000002026E040F22941134801F06FFAF1E7DE
:10538000324621462846FFF7A7FF42F2107303FB7F
:1053900000F300280CDD0D4A52F8240000EBD07019
:1053A00003EB6000094B53F8243090FBF3F008E066
:1053B000064A52F8240000EBD070A3EB6000F1E73E
:1053C000002000B270BD00BFBCB200103031000838
:1053D00010B4D0F8003303F00F03072B0AD90023D1
:1053E0000FE0D0F84043CC5401339342F9D35DF839
:1053F000044B70470023F8E7D0F8404321F81340EE
:1054000001339342F8D3F2E710B51446D0F80833CD
:10541000C3F308039A4204D22246FFF7D9FF20467D
:1054200010BD1C46F8E7036813F4006F0AD0802211
:10543000D0F80832C3F30803934205D0C0F84012F5
:10544000012070474022F3E70020704710B4D0F8E5
:10545000003203F00F03072B0AD900230FE0CC5CC6
:10546000C0F8404201339342F9D35DF8044B7047D2
:105470000023F8E731F81340C0F84042013393426B
:10548000F8D3F2E710B51446036813F4006F0CD09C
:105490008023D0F80822C2F308029B1AA34206D93F
:1054A0002246FFF7D3FF204610BD4023F1E71C46FC
:1054B000F6E700002DE9F84305460C46036813F4AF
:1054C000006F13D04FF08008D5F8007207F00F0777
:1054D000A66A012E0DD8D5F80832C3F30803984503
:1054E00002D0A36A012B1FD0BDE8F8834FF040081B
:1054F000EAE7D4F82490E662013EB9F1000F00D04B
:1055000026B940F21D51224801F0A8F93246494619
:105510002846FFF7B7FFA36A1B1AA362072F00D91B
:10552000400048446062D6E70023A362072F26D8D4
:10553000636A1E78FCF749FFC5F840624FF40073B8
:10554000C5F8803FD5F8803FFCF743FFD5F8883F8A
:1055500023F4007222F0010242F4007623F4EE6399
:1055600023F0030373B9C5F8886F236843F002037F
:105570002360236B002BB7D001209847B4E7636A00
:105580001E88D7E740F2EA41024801F067F9EAE7EE
:1055900010B3001040B300102DE9F04105460C4651
:1055A000036813F4006F3BD080267608A769D4F80F
:1055B0001C8017B1B8F1000F04D140F2724133489A
:1055C00001F04CF9424639462846FFF71DFF236A91
:1055D00003442362E3691B1AE3618BBBA3685BB3DB
:1055E000E368B3421ED3013E2B6813F4006F1BD057
:1055F00080239E421AD2D5F8043323F0FF03F6B27B
:105600001E43C5F804630123C5F8C83F636823F04F
:1056100001036360236B0BB104209847BDE8F08160
:105620004026C2E75E1EDFE74023E2E74FF45071F9
:10563000174801F013F9DEE70023C5F8C83FE5E796
:10564000A269D5F8001301F00F01072900D9400025
:105650001044A061B342E1D25C1E2B6813F4006FCA
:105660000BD080239C420AD2D5F8042322F0FF02FB
:10567000E3B21343C5F80433D0E74023F2E74FF415
:105680005071034801F0EAF8EEE700BF10B30010D4
:1056900040B30010002800F0C48170B50546002911
:1056A00000F0C18116460C460B78022B20D8637B94
:1056B000023BDBB2062B20D8A37B1BB1022B01D00F
:1056C000032B1FD194F82130012B20D894F82830D7
:1056D000012B21D82378012B23D9A37F002B00F0A5
:1056E000BC806368013B062B00F2B98000231EE0FA
:1056F0004921974801F0B2F8D9E74A21944801F0CE
:10570000ADF8D9E74B21924801F0A8F8DAE74C212F
:105710008F4801F0A3F8D9E74D218D4801F09EF89C
:10572000D8E76368083B082B94BF00230123002BB4
:1057300040F09780A368053B042B00F297806369D3
:10574000FF2B00F29880A369FF2B00F29980A37CC5
:105750004BB123781BB9A368092B00F09680542124
:105760007B4801F07BF8636B23F4366323F00D0371
:10577000002B40F08F80E36B23F4EE6323F00303F0
:10578000002B40F08C802378022B00F08D80626823
:10579000013A237F002B00F08D804FF48033A16805
:1057A000082900F289804FF400610B4302F00F02D8
:1057B000134343F000732B60236B2A6812F4006FCD
:1057C0007CD0802293427BD2A36B2A6812F4006FB4
:1057D0007BD0802293427AD2636A2A6812F4006FE7
:1057E0007AD08022934279D223781B0603F040734B
:1057F0002B64637F002B76D04023A27C002A74D0D8
:105800004FF480621343227C002A70D04FF48072E0
:105810001343627C002A6CD04FF400721343E26A97
:10582000013A120402F470221343627B013A02F03F
:1058300007021343A27B120102F030021343AB6450
:10584000237B002B57D04FF48073E27B002A57D183
:105850002278022A51D0002254E0002367E7012376
:1058600065E74F213A4800F0F9FF63E750213848D7
:1058700000F0F4FF63E75121354800F0EFFF62E7E5
:105880005221334800F0EAFF61E7A37B002B3FF48D
:105890006AAF64E756212E4800F0E0FF6BE757211E
:1058A0002B4800F0DBFF6EE7A37F002B7FF46FAF88
:1058B00000226EE7002372E7002176E7402281E7AD
:1058C0006C21234800F0CAFF7EE7402282E76D2169
:1058D0001F4800F0C3FF7FE7402283E76E211C488A
:1058E00000F0BCFF80E7002387E700228AE7002260
:1058F0008EE7002292E70023A7E74FF4007201E051
:105900004FF400721A43A368013B03F00F031343E3
:10591000C5F80033227DA3691B0403F47F031343FE
:10592000C5F81033E26AD5F8003303F00F030333F0
:105930009A4201D3102A03D98421054800F08EFF32
:10594000E37F3BB12378012B5BD0002203E000BF53
:10595000E4B200100022637B013B03F00703134312
:10596000A27B120102F0300213436B64237B002BF5
:105970004AD04FF48072A368013B03F00F03134336
:105980002278012A42D000221343C5F8003294F84D
:105990003030C5F8043394F82030002B39D04FF064
:1059A000007394F82120012A35D00022134394F883
:1059B0002820012A32D00022134394F824201343D4
:1059C0002B6594F83830C5F80432636B23F4926386
:1059D00023F002031B051B0DC5F8C83FE36B23F042
:1059E0008C035B055B0DC5F8883FF6B10020706045
:1059F0003060B060F0603062F06230630C4B736313
:105A000070BD4FF48072A6E70022B4E74FF48032F5
:105A1000BAE70023C5E74FF08072C7E74FF4803242
:105A2000CAE7044870470348EAE70020E8E700BFF8
:105A3000EFCDAB000160AA00036823F000430360D0
:105A400021B100224A600A600A62CA6270470000FF
:105A5000F8B507460E4614461D466BB36A6B224BDB
:105A60009A422FD106B124B940F2C9111F4800F063
:105A7000F5FE06B3FCB13B6813F4006F28D0802319
:105A80005B08AE60EC6000222A616A619C4221D30F
:105A90005C1E3B6813F4006F1ED080239C421DD215
:105AA000D7F8043323F0FF03E4B21C43C7F80443E0
:105AB0000123C7F8C83FF8BD40F2C7110B4800F0FA
:105AC000CDFECBE74FF4E471084800F0C7FEC9E70C
:105AD0004023D5E7013CDCE74023DFE74FF450717A
:105AE000034800F0BBFEDBE7EFCDAB00E4B20010F3
:105AF00040B3001008694B69834204D9CB694A69F5
:105B00009B1A184470474B69C01A70472DE9F04141
:105B100007460D46036813F4006F09D04FF0800864
:105B20004FEA5808D7F80863C6F308062C6933E033
:105B30004FF04008F4E7002434E02B6B0BB1082051
:105B400098476B69A34230D10023C7F8C83FE4B13E
:105B5000013C2C61EC6829463846FFF7CBFF241A3C
:105B6000A04510D964B3013C3B6813F4006F29D001
:105B700080239C4228D2D7F8043323F0FF03E0B2FD
:105B80001843C7F80403BDE8F081EC68013CE0E786
:105B9000AB6823F81420013E002EDAD00134EB6804
:105BA000A342C8D06B69A342C7D0D7F84023D7F827
:105BB000003303F00F03072BEAD8AB681A55EAE766
:105BC0000024D1E74023D4E74FF45071014800F09E
:105BD00045FED0E740B3001048687047086870473A
:105BE00038B504684568022928D008292CD0012935
:105BF00001D01C4827E029462046FFF7EFFF10F0B0
:105C0000010F27D129462046FFF7E6FF10F0010FCC
:105C100022D1D4F80832C3F30803D4F80822C2F31F
:105C2000C032D3421AD1D4F80833C3F30803BBB946
:105C300029462046FFF700FF002004E0236843F0D8
:105C400000432360002038BD236843F000432360F5
:105C50000020F8E70348F6E70248F4E70148F2E7D6
:105C60000048F0E7FF00420038B504460D46D0F882
:105C7000003E13F0080F3FD0D0F8CC3F13F4487328
:105C80000AD04A681A434A60C0F8C03FD0F8C03F03
:105C90000B6B0BB110209847D4F8CC3F13F4006F76
:105CA00009D06B6843F400636B604FF40063C4F881
:105CB000C03FD4F8C03FD4F8CC3F13F0010F0DD053
:105CC000EB69002B52D1AB681BB129462046FFF788
:105CD0001DFF0123C4F8C03FD4F8C03FD4F8CC3F27
:105CE00013F0040F08D02B6B0BB14020984704230E
:105CF000C4F8C03FD4F8C03FD4F8003E13F0040FFE
:105D000033D0D4F88C3F13F4A0630AD02A681A4326
:105D10002A60C4F8803FD4F8803F2B6B0BB1202061
:105D20009847D4F88C3F13F0010F24D1D4F88C3F5E
:105D300013F4007F0BD00022C4F8882F2B6823F0C7
:105D400001032B60EA622B6B0BB102209847D4F859
:105D50008C3F13F0100F08D02B6B0BB180209847AD
:105D60001023C4F8803FD4F8803F38BD2946204630
:105D7000FFF712FCADE729462046FFF79BFB012306
:105D8000C4F8803FD4F8803FD0E7000010B5044647
:105D900060B3002C43D02378012B2CD8E36843B1A7
:105DA000B3F1A04F05D0B3F1C04F02D0B3F1E04F33
:105DB00026D1A3682BB1B3F5801F02D0B3F5001F25
:105DC00023D1636813B1B3F5803F23D1237843F027
:105DD000040362681343A2681343E2681343114A41
:105DE0001268D269C2F8003E002010BD4F210E4853
:105DF00000F034FDCDE75A210B4800F02FFDCDE730
:105E00005B21094800F02AFDD3E75C21064800F039
:105E100025FDD6E75D21044800F020FDD6E70348C4
:105E2000E3E700BF0C31000870B3001001005E0012
:105E3000134B1B6893F83A3083421DD9042904D9C7
:105E4000A1F580739BB2132B18D8FF2907D801F056
:105E50000701D0300B4B43F820100020704701F0B1
:105E60001F01084B00F1C00243F82210D030042279
:105E700043F82020002070470348704702487047CD
:105E80000C3100080000264001004A0010B504460D
:105E90000E4B1B6893F83A30834209D904F1D003C2
:105EA0000B4A52F8230000F00700042806D010BD6A
:105EB00040F26D11074800F0D1FCEFE7C03452F812
:105EC000240000F01F0040F48070F0E70C3100085F
:105ED000000026409CB3001010B50446002868D08E
:105EE000514BD3F88035002BC0F29B802368B3F56B
:105EF000802F64D22368C3F31103E279002A64D0AF
:105F00004FF080721343484AC2F88035A388B3F536
:105F1000005F5CD22389B3F5007F5ED2A388C3F310
:105F20000C032189414A02EA014213433E4AC2F866
:105F30008435A37A0F2B56D8E37A0F2B59D8A3892F
:105F4000B3F5005F5BD2A37A03F00F03E27A12018C
:105F5000D2B21343A189364A02EA01221343A27B3B
:105F6000120702F0405213432F4AC2F88835A37932
:105F7000042B4AD8238AB3F5007F4CD22A49D1F8A2
:105F80008C3523F4E063A279120202F4E062134339
:105F9000C1F88C35D1F88C3523F0FF7323F48033AE
:105FA000208A224A02EA00421343C1F88C350020BD
:105FB00010BD40F267211F4800F050FC90E740F20E
:105FC0006D211C4800F04AFC94E700229AE74FF448
:105FD0001D71184800F042FC9CE740F275211548FD
:105FE00000F03CFC9AE74FF41F71124800F036FCB9
:105FF000A2E740F27D210F4800F030FC9FE740F21D
:106000007E210C4800F02AFC9DE740F287210948D8
:1060100000F024FCAEE74FF42271064800F01EFCAD
:10602000ACE70548C4E700BF000026400000FF01C0
:1060300000FF1F009CB3001003004A0010B5044687
:1060400038B3174AD2F88035C3F311012160C3F386
:106050000063E371D2F88435C3F30C01A180C3F36C
:1060600008432381D2F8883503F00F01A172C3F3EE
:106070000311E172C3F30C21A181C3F30173A37374
:10608000D2F88C35C3F30222A271C3F308432382F2
:1060900010BD40F2A121034800F0E0FBD1E700BFB2
:1060A000000026409CB3001038B505462D4AD2F8B2
:1060B0008C3543F00043C2F88C35044603E00120E0
:1060C00000F0C0FB013C274BD3F8903513F0040FD0
:1060D00001D1002CF3D1234AD2F8883523F0405364
:1060E00043F00053C2F8883505B15CB11D4AD2F8BF
:1060F000803543F00043C2F8803503E0012000F012
:10610000A1FB013C174BD3F8903513F0010F01D1DF
:10611000002CF3D105B154B1124AD2F8883543F0BE
:106120004053C2F88835C5B1CCB1002016E00D4B04
:10613000D3F8882522F0405242F00052C3F8882557
:10614000D3F8802522F00042C3F88025D3F88C25AF
:1061500022F00042C3F88C25E5E7002038BD024854
:10616000FCE700BF0000264002004A00314B1B68DC
:1061700093F83B3083424FD370B50D46441EA34283
:1061800040D904F5C0732C4A52F82330002B45DB6C
:10619000AA78931EDBB20E2B42D86B78002B41D02D
:1061A000122B41D82978E87890B31326B1423DD319
:1061B00080B33826B1423BD82E79022E12D001F09E
:1061C0007F011B0203F4F8530B43120402F4F8128C
:1061D0001A43C00600F00060024304F5C07316497C
:1061E00041F82320144904F5C07451F8243023F0F9
:1061F00040532A79120702F04052134341F82430E9
:1062000000200EE040F2EF310C4800F027FBB8E729
:106210001626CBE77026CDE709487047094800E00D
:10622000074870BD0648FCE70548FAE70448F8E768
:106230000348F6E70C3100080000264018AD0010B6
:1062400001004A0003004A0001380F4B1B6893F815
:106250003B30834215D900F5C0700C4B53F8203009
:1062600003F07F020A70C3F304224A70C3F30442AE
:106270008A70C3F3C062CA70C3F301730B7100204C
:1062800070470348704700BF0C31000800002640EB
:1062900001004A0070B5451E144B1B6893F83B3053
:1062A000AB421DD90E46124A05F5C07152F8213095
:1062B00043F0004342F82130344603E0012000F06F
:1062C000C1FA013C05F5C873094A52F8233013F0AE
:1062D000010F01D1002CF1D126B12CB1002002E038
:1062E000044800E0002070BD0348FCE70C310008C2
:1062F0000000264001004A0002004A002DE9F0415A
:106300000139072900F22281DFE811F008001200AC
:106310002001180020012001200189008D4B1B78ED
:10632000002B40F015818C4B01221A70002502E0F1
:106330000025894B1D702846BDE8F0810024874B5D
:106340001C80874B1C800AE0651EAB4214D905F502
:10635000C075844B53F82530DB0F9BB90134824B59
:106360001B6893F83B30A34257D3002CECD17D4BF4
:10637000D3F88035DB0FF0E740F2EF317B4800F0D7
:106380006DFAE4E72046FFF781FD02280BD0002CD0
:10639000E4D1744AD2F8883523F0405343F00053D7
:1063A000C2F88835DAE7A4B96E4AD2F8883523F006
:1063B000405343F00053C2F8883500212046FFF7D0
:1063C00037FD0123A3409BB2644A11880B4313801D
:1063D000C4E7621E04F27F13624951F8233013F0C0
:1063E000405F07D002F5C07351F82330C3F3017347
:1063F000012B06D10123A3409BB2594908880343CE
:106400000B80584902F5C07251F8223023F04053F6
:1064100043F0005341F82230CFE700258BE74F4B84
:106420001B8853B94F4BD3F88035002BC0F28A80BC
:106430000025494B00221A707DE74D4C494BD3F89B
:10644000303503F00303032B05D0464BD3F830352A
:106450000CB1013CF2E7002C5ED1464DE9E7013C6E
:10646000404BD3F8903513F0010F01D1002CF6D139
:106470004CB1002E36D13B4AD2F8883543F0405318
:10648000C2F8883500250136374B1B6893F83B303E
:10649000B342CED30127B740BFB2304B1B881F4257
:1064A000F1D002213046FFF7C3FC002ED8D00BE01C
:1064B00008F5C8782B4B53F8283003F00103002B64
:1064C000D6D1002CD4D0013C06F1FF38264B1B68F6
:1064D00093F83B309845EBD340F20741234800F056
:1064E000BDF9E5E71E4B1B881F420AD01D4A06F284
:1064F0007F1152F8213023F0405342F8213000251B
:10650000C1E7184A06F27F1152F8213043F0405398
:1065100042F821300025B6E70026164DB4E7013BCE
:10652000104AD2F8902512F0010F01D1002BF6D1BC
:1065300053B10C4AD2F8883543F04053C2F888353D
:10654000002576E70A4BEBE70A4D72E70A4DF2E6C3
:10655000094DF0E6863000089230000884300008CB
:1065600090300008000026400C31000818AD0010E3
:1065700040420F0002004200FF00420070B586B0AA
:1065800004466D4B1B6893F83C3098423CD204F1B2
:10659000E0036A4A52F82330C3F3011301269E40F8
:1065A000654B1B6893F83C309C4233D204F1E00009
:1065B000624B53F8204004F00F042046FFF766FCBE
:1065C00003284CD02CD8012837D039D85C4D002C6A
:1065D00064D0594B1B6893F83B30A3427FD2002113
:1065E0000A460C460B464BB1A2FB012359084FEA61
:1065F0003200E4FB050101F059FA054605EB5600AF
:10660000B0FBF6F006B070BD40F2EB714D4800F003
:1066100025F9BCE740F2AC714A4800F01FF9C5E724
:1066200040F21113984227D040F2131398422BD016
:10663000B0F5887F16D00025C9E7434B1D68C6E733
:106640003E4BD3F8303503F00303032B04D03B4B10
:10665000D3F830350025BAE73C4B1D68B7E73C4B13
:106660001D68B4E7354BD3F80C35002B01DB002552
:10667000ADE74FF40045AAE7364B1D6915F0040558
:10668000A5D04FF40045A2E72C4BD3F83C35002BA6
:1066900001DB00259BE74FF4004598E700230193B9
:1066A000029303930493059301A8FFF7C7FC234BC0
:1066B000D3F88035002B08DB0023019CBDF80820AF
:1066C0009DF80B1049B102218DE79DF81230022B85
:1066D00001D00123F1E70023EFE7012183E7002345
:1066E00001938DF8083001A92046FFF7ADFD013C6C
:1066F000114B1B6893F83B309C420ED204F5C074DA
:106700000E4B53F82430002B0DDB00239DF8044082
:106710009DF805209DF8061065E740F2EF31094825
:1067200000F09CF8EAE79DF80830022B01D0012325
:10673000ECE70023EAE700BF0C3100080000264028
:1067400000127A0018AD00108C3000088830000864
:10675000803000080000274038B50D4B9A680D4B7B
:106760009A4204D010300C4B53F8200038BD0D462F
:10677000044639B104F11003064A52F8230042F8E6
:106780002350F3E740F24111044800F067F8F1E7C5
:1067900000ED00E00020000800200010C8B3001049
:1067A00060B338B504460D464368072B13D8B4F9D7
:1067B00000306268002B13DB5201D2B203F1604358
:1067C00003F5614383F800230D4B9A680D4B9A4201
:1067D0000DD0002038BD3C210B4800F03FF8E6E723
:1067E00003F00F035201D2B20849CA54ECE729461C
:1067F000B4F90000FFF7B0FF0020EBE70448704752
:1068000000ED00E000200008C8B3001014ED00E027
:106810000100560010B5044605E0084B1868FBF768
:10682000CBFDA4F50044B4F5004FF6D8044B18682E
:1068300000FB04F0FBF7C0FD10BD00BF08230008FB
:106840001023000808B5034B1B7800FB03F0FBF78F
:10685000B3FD08BD1423000801BEFEE738B50D46A0
:10686000044C18220146204601F068FFA561002073
:10687000FFF7F2FF482A0008054B4FF000429A64E8
:106880009B6C002B01DB002070470248704700BF63
:106890000000274003004600044BD3F800085B6863
:1068A00013F0FF0F01D040F4802070470000264015
:1068B000FEE7000008B50268254BDA6142681A62FB
:1068C00082685A62C2689A620269DA6242691A632D
:1068D00082695A63C2699A631E4A916AD963D16A0E
:1068E0001964516A5964516B9964926BDA64F1EEE0
:1068F000103A13F0900F27D0026A154B1A65426ABE
:106900005A65826A9A65C26ADA65026B1A66426BD8
:106910005A66826B9A66C26BDA66026C1A67426CC0
:106920005A67826C9A67C26CDA67026DC3F880207E
:10693000426DC3F88420826DC3F88820C26DC3F80D
:106940008C20026EC3F89020FFF7B2FF08BD00BF95
:10695000482A000800ED00E070B4044600282ED05C
:1069600019232F4802681668B2F8A450725922F011
